:03080000022FC6FE
:10080300EBFDEAFCE9F87BFFD083D0828581F0E43D
:10081300C0E0C0E0C0E0AE81C082C08385F08275D5
:10082300F000C2D58009D0E0FDD0E0FCD0E0F812A2
:100833000ABFFFC3E8C0E0ECC0E0EDC0E0EF602614
:1008430030D503020884B4250D74FF11CBD3740093
:1008530011C1D2D580D0120A4C80CBE4120A4CD3FA
:1008630011E880050129BBFFF2E58124FDF581D064
:1008730082D08324FCF581D0E0C083C082FF7E0058
:1008830022A882FF900A61E493601F6FA36006A30E
:1008930050F5A380F293FF400642F0888280C5A3FF
:1008A300E4938F83F582C2D1E47340B8D3A380D796
:1008B3008882D0E0FDD0E0FCD0E0F8020822C380BB
:1008C3000811D8B4FF027401D3CEC8CE500118F674
:1008D300800BC38001D3CEC8CE500118E650010867
:1008E300CEC8CE22C3CE1414C8CE065002161608A4
:1008F300D380EAE9C0E0E8F9E7F819E7FC19E7FD76
:1009030019E9C0E0E4120AB7EE24FEF9E7C9D0E022
:10091300C9120AB7E9F8D0E0F901B3E6FF18185194
:100923004C01B37F2580F8D2D1C2F611C47582027F
:100933007D0430F4048D827D08E618F583540FC0DE
:10094300E0E58354F0C4C0E01582E58270EB758264
:10095300008000D0E07006ED60031D80F6C0E0E586
:1009630082700430F0010D511EBD0004E4C0E00D9F
:10097300D0E024F6500730D10224202407243AFF84
:10098300514CDDEC01B3C2F6740630F402740B3043
:10099300F00104FD7582088D8311C4C0F0515AE63D
:1009A300FC08E618CC7F0130F4027F038582F084D3
:1009B300F6EC54F025F0C48582F084C4CC540FC502
:1009C300F0C425F08582F0842C08F6DF0FD0E0C553
:1009D300F0C0E0EFD583C4515A18215608E618FC3D
:1009E30080D0C2F07D0530F4027D0A75820A80A7AB
:1009F300E8FD515AE630E717D2D1EDF8758202309F
:100A0300F402758204C3E6CFE49FF618D582F7EDAE
:100A1300F8A2F572F672D192F080C930F028E5821F
:100A2300B40A117F2D20D10E7F2B20F5097F2030B2
:100A3300F61480027F30514CE582700A7F7820D112
:100A4300027F581D514CC2F02211E7BBFF04123143
:100A53006622EF120ABB221830F4021818226C1017
:100A630062006800006F098978092A58092C750902
:100A7300E56409F36909F363091E6E08F62509267F
:010A83000072
:0C0A8400E0A3FCE0A3FDE0A3FEE0FF22E5
:0C0A9000ECF0A3EDF0A3EEF0A3EFF022D9
:100A9C00E0FCA3E0FDA3E0FEA3E0FF8A838B82ECE5
:0B0AAC00F0EDA3F0EEA3F0EFA3F022AA
:040AB70051CF41C317
:040ABB0051EB41C9F1
:040ABF00710741C3B7
:060AC30008B800010C223E
:060AC90009B900010A2238
:100ACF00CD30E11520E00FC083C08288828C83CDAA
:0C0ADF00F0D082D08322CDF222CDF6228E
:100AEB00CB30E11520E00FC083C08289828A83CB93
:0C0AFB00F0D082D08322CBF322CBF72274
:100B0700ED30E11320E00EC083C08288828C83E041
:100B1700D082D08322E2226405700EC083C082880F
:0B0B2700828C8393D082D08322E622D0
:100B320088F0A8817404C0E0C0F018E6C0E008E6BE
:100B4200C0E00886F018188001A3E0C608D5F0F9C5
:020B5200F82287
:100B540092D61582C582B4FF021583C582A2D6221D
:0A0B6400E0C0E0A3E0F582D0832298
:100B6E00EFAFF0A4CFC5F0CF2582F582E5833FCE5F
:050B7E00A42EF5832206
:050B8300C082C08322C6
:100B8800120E28C380021819E637F6DAF9020C6E3D
:100B9800E0A3FEE0FFEF8DF0A4CFC5F0CCA42CFCC1
:090BA800EE60038DF0A42CFE2286
:100BB100C2D1C2D5EE30E707D2D1D2D5120C5EEC4C
:100BC10030E705B2D1120C66120BD930D103120CE9
:100BD1005E30D503120C6622BC000EBE0032EF8DD2
:100BE100F08420D226FFADF0227B0075F008EF2FB4
:100BF100FFEE33FEEB33FBEE9DEB9C4005FBEE9DE0
:100C0100FE0FD5F0E9E4CECDCBCC227EFF7FFF22D3
:100C1100EDB410005022EE8DF084FEEF54F045F05B
:100C2100C48DF084C4FCEF540FC445F0C48DF0842E
:100C3100FFADF0E4CC4FFF22EE8DF08420D2CC7ECC
:100C410008CEC5F0CDCBEF2FFFED33FD10D7079BBD
:100C51005005D5F0F1229BFD0FD5F0EA22C3E49FA8
:0D0C6100FFE49EFE22C3E49DFDE49CFC2206
:0F0C6E0074FCD083D0822581F581C082C083229F
:100C7D00D2D57F018002C2D5ED7003020DE354077A
:100C8D002323F58289F0EAFDEB700122540345829E
:100C9D0023900CE773E608F70920D50470F7803F21
:100CAD00DEF3DFF1803989828D83E608F0A320D54C
:100CBD000470F7802ADEF3DFF18024E608F30920C3
:100CCD00D50470F78019DEF3DFF1801388828C83F1
:100CDD00E0A3F70920D50470F78004DEF3DFF102FD
:100CED000DE080B180AF80BE80D180E080DE80518C
:100CFD00806B80168014803480218099809780A627
:100D0D0080B980438041803C8068E208F70920D596
:100D1D000470F780CADEF3DFF180C4E208F3092026
:100D2D00D50470F780B9DEF3DFF180B389828D834E
:100D3D00E208F0A320D50470F780A4DEF3DFF18084
:100D4D009E020DBB020D9588828C83E493A3F70957
:100D5D0020D50470F68088DEF2DFF080F888828C72
:100D6D0083E0A3F30920D50470F780E9DEF3DFF10A
:100D7D0080E388828C83E493A3F30920D50470F675
:100D8D0080D3DEF2DFF080CD88828C83E493A3C91B
:100D9D00C582C9CDC583CDF0A3C9C582C9CDC583D3
:100DAD00CD20D50470E680ADDEE2DFE080A788823D
:100DBD008C83E0A3C9C582C9CDC583CDF0A3C9C5B8
:100DCD0082C9CDC583CD20D50470E780DFDEE3DF9A
:030DDD00E180D9D9
:080DE000A9F022E4FBFAF9225C
:100DE800D2D5E8C0E0E58124FCF8E6FF08E6FE4F2E
:100DF8007003D0E0220FBE00011FD0E0F8020C857E
:100E0800D2D5E8C0E0E58124FCF8E6FF08E6FE4F0D
:100E18007003D0E0220FBE00011FD0E0F8020E3FA1
:0F0E2800E5D054182407F8E58124FCF97A042258
:100E3700ED4B6402601EC2D5ED70030210FE54072D
:100E4700232323F582EB70030210FA54074582230C
:100E5700900F16738C838882E0A3F5F0E0A3C9C5D1
:100E670082C9CAC583CAFBE0A3B5F0776011E0A3C6
:100E77008BF0B5F06EC9C582C9CAC583CA70D902DD
:100E870010F650030210FE0210FA8C838882E0A34A
:100E9700C9C582C9CAC583CAF5F0E0A3B5F044C97C
:100EA700C582C9CAC583CA20D50570E20210F6DE1D
:100EB700DDDFDB0210F68C838882E0A3C9C582C917
:100EC700CAC583CAF5F0E493A3B5F017C9C582C9AB
:100ED700CAC583CA20D50570E10210F6DEDCDFDA69
:100EE7000210F602100D80CE80A08C838882E3F575
:100EF700F009E0A3B5F08B20D50570F20210F6DEFD
:100F0700EDDFEB0210F68C83888287F009E0A3B54A
:100F1700F07120D50570F30210F6DEEEDFEC02105B
:100F2700F68063807C8078805D807200000000001E
:100F37000080D380B380B380CD80AB000000000079
:100F47000080288029802A80228029000000000054
:100F5700008033804C8048802D80420000000000D4
:100F670000801480158016800E8015020FF602107F
:100F7700150210310210490210660210830210AEEA
:100F87000210CC020E8986F008E709B5F07820D563
:100F97000570F30210F6DEEEDFEC0210F680348007
:100FA7001B89828A83E0A386F008B5F05920D5050E
:100FB70070F30210F6DEEEDFEC0210F686F008E3BF
:100FC70009B5F04220D50570F30210F6DEEEDFEC2E
:100FD7000210F689828A83E493A386F008B5F02687
:100FE70020D50570F20210F6DEEDDFEB0210F6E217
:100FF7000887F009B5F08C20D50570F30210F6DEEE
:10100700EEDFEC0210F650030210FA0210FE89829E
:101017008A83E2F5F008E0A3B5F0EB20D50570F27E
:101027000210F6DEEDDFEB0210F6E2F5F008E30959
:10103700B5F0D320D50570F20210F6DEEDDFEB0236
:1010470010F689828A83E2F5F008E493A3B5F0B637
:1010570020D50570F10210F6DEECDFEA0210F68803
:10106700828C83E493F5F0A3E709B5F09920D505C1
:1010770070F10210F6DEECDFEA0210F688828C834C
:10108700E493F5F0A3C9C582C9CAC583CAE0A3B56D
:10109700F030C9C582C9CAC583CA20D50470E180AA
:1010A7004EDEDDDFDB804888828C83E493F5F0A396
:1010B700E309B5F00D20D50470F18033DEEDDFEBE9
:1010C700802D02100D88828C83E493F5F0A3C9C5A7
:1010D70082C9CAC583CAE493A3B5F0E6C9C582C964
:1010E700CAC583CA20D50470E08004DEDCDFDAE4F9
:0C10F700FEFF2274FF80F97E007F0122C2
:0111030022C9
:10110400900001E0F454016007C0E0121115D0E032
:0111140022B8
:091115009009A1E070030211D061
:10111E00900A80E0FEA3E0FF122F2D7F1E7E0912A3
:10112E002E4990091EE054FEF054FDF04404F05494
:10113E008F4420F0547FF0A3E04410F04420F0449C
:10114E0040F090091EE0547FF0A3E054F04406F006
:10115E00900921E4F0A3F0A3F0A3F07F1E7E091204
:10116E002EE59005FCE4F0A3F0900600F0A3F090BD
:10117E0005FEF0A3F07FE47E05120498900925E4A5
:10118E00F0A3F0900927E4F0A3F0900928E0FA2AE2
:10119E00FB900925E0FEA3E0FF90060275F03E12DB
:1011AE000B6EEB2582F582E43583F583E4F0A3F034
:1011BE00900928E004F0B41FD1900926E004F0B4A1
:1011CE000CC1905001E09005C1F0905000E09005E8
:1011DE00C0F0905002E09005C2F0905003E09005F0
:0B11EE00C3F01212369009ADE0603C27
:1011F9009005D8E0B4000CA3E0B402079005D8E448
:10120900F0A3F09005D8E0FAA3E0BA0008600F1443
:06121900600414600622CF
:10121F00121BF080031212369005D9E004F09005EE
:07122F00D87003E004F02277
:10123600900A80E0FEA3E0FF122F2D123071122ECD
:0812460030EE4F700302141298
:10124E00122E26EF900929F0BF480302131C506D91
:10125E00E0B437030213815037E0B4330302138135
:10126E005017E024D070030213811470030213810F
:10127E00147003021381021401E024CC70030213D4
:10128E00811470030213811470030213810214017E
:10129E00E0B442030213325015E024C87003021367
:1012AE008114700302138124F86079021401E02482
:1012BE00BD605B14605824FD606A021401E0B459ED
:1012CE0002804B5026E0B44F028043500FE024B70B
:1012DE00603C24FC603814604B021401E024AD60C5
:1012EE006F14606C24FC603C021401E0B46D02804B
:1012FE001D500FE0249F604214603F24FB603B02B0
:0E130E001401E02492603324F6602F021401D3
:10131C00900929E090091AF07402A3F0E490091DD9
:10132C00F090091CF022900929E090091AF074023F
:10133C00A3F0E490091DF090091CF022900929E01B
:10134C0090091AF07402A3F0E490091DF090091CA6
:10135C00F022900929E090091AF0FF90091DE0FD98
:10136C001216ADE490091DF090091AF090091CF0CA
:10137C0090091BF02290091CE004F090091BE0601E
:10138C001690091AE0601090091CE0FEF5F0900927
:07139C001BE0B5F000501248
:1013A300E490091DF090091CF090091BF090091AB4
:0A13B300F02290091CE06401700BA9
:1013BD00900929E024D090091DF02290091CE064C9
:0313CD000270317A
:1013D000A3E075F00AA4FA900929E024D02A900924
:1013E0001DF090091AE0FF90091DE0FD1216ADE412
:1013F00090091DF090091CF090091BF090091AF05B
:1014000022E490091DF090091CF090091BF090094E
:031410001AF022AD
:101413006572726F726520696E707574206F726188
:10142300203E2032332E20496E7365726972652027
:101433003220636966726520646F706F20696C2067
:10144300636F6D616E646F20432E204573204332BA
:10145300310A007069616E6F20312064616C6C65C4
:101463002025753A303020616C6C652025753A353E
:10147300392025630A006572726F726520696E7088
:101483007574206F7261203E2032332E20496E73B3
:101493006572697265203220636966726520646FC4
:1014A300706F20696C20636F6D616E646F20442ED2
:1014B300204573204431390A007069616E6F203012
:1014C3002064616C6C652025753A303020616C6C4A
:1014D300652025753A35392025630A006572726FD8
:1014E300726520696E707574203E2031352E204957
:1014F3006E73657269726520322063696672652056
:10150300646F706F20696C20636F6D616E646F2010
:10151300492E204573204930310A00696E70757475
:101523002025753A2025750A006572726F72652051
:10153300696E707574203E20372E20496E73657274
:10154300697265203220636966726520646F706F0B
:1015530020696C20636F6D616E646F204F2E204590
:1015630073204F30360A006F7574707574202575BB
:101573003A2025750A002563002575002575257514
:1015830025752575000A504C43204F4E2046524F77
:101593004D3A202575202575202575202D2025758C
:1015A3003A257520000A4C4153542043414C444191
:1015B3004941204F4E3A2025752025752025752059
:1015C3002D2025753A257520000A43414C44414995
:1015D30041204F4E2046524F4D2575000A0072653B
:1015E300616C2074696D6520636C6F636B3A2025B1
:1015F30075202575202575202D2025753A25753AEA
:1016030025750A20006572726F726520696E7075A8
:1016130074206F7261203E2032332E20496E736531
:1016230072697265203220636966726520646F7027
:101633006F20696C20636F6D616E646F2025632E6C
:1016430020457320256331390A007069616E6F206C
:101653003120696D706F737461746F20616420252C
:10166300632064616C6C652025753A303020616CB1
:101673006C652025753A35390A007069616E6F20F3
:101683003020696D706F737461746F2061642025FD
:10169300632064616C6C652025753A303020616C81
:0A16A3006C652025753A35390A0000
:1016AD0090092AEFF0A3EDF0900A80E0FEA3E0FF91
:1016BD00122F2D1230717FDC7E0512049890092AAD
:1016CD00E0B45303021913504BE0B44803021765FD
:1016DD005024E024BF7003021B05147003021B0588
:1016ED001470030217E914700302183824FD7003F7
:1016FD00021B05021BEDE024B7700302188724FCC2
:10170D0070030217A3147003021B05147003021853
:10171D00CD021BEDE0B46203021B79501FE024AC37
:10172D007003021ABB24FC7003021B051470030224
:10173D0017CA24F87003021B79021BEDE02499707F
:10174D0003021B7924FA602F147003021B7924F60F
:08175D007003021B79021BED71
:1017650090092BE0B41701D340037FFF2290092B8A
:10177500E09005E0F07E057FDC12049B021BED90F6
:10178500092BE0B43B01D340037FFF2290092BE0F6
:101795009005E1F07E057FDC12049B021BED9009AC
:1017A5002BE0FB7A00B40001D34017B40D005012B2
:1017B50090092BE09005DDF07E057FDC12049B028D
:1017C5001BED7FFF2290092BE0B46301D340037F1B
:1017D500FF2290092BE09005DCF07E057FDC1204EA
:0E17E5009B021BED90092BE0B41701D3400CC2
:1017F3007B057A1479131208037FFF2290092BE0EB
:101803002402F582E43409F583E0FD3395E0C0E07A
:10181300C00590092BE0FDE4C0E0C005E0FDE4C095
:10182300E0C0057B057A14795612080374FA258102
:0F183300F581021BED90092BE0B41701D3400C97
:101842007B057A1479791208037FFF2290092BE035
:1018520024EAF582E43408F583E0FD3395E0C0E044
:10186200C00590092BE0FDE4C0E0C005E0FDE4C046
:10187200E0C0057B057A1479BC12080374FA25814D
:0F188200F581021BED90092BE0B40F01D3400C50
:101891007B057A1479DF1208037FFF2290092BE080
:1018A10024C0F582E43405F583E0FDE4C0E0C00521
:1018B10090092BE0FDE4C0E0C0057B057A15791E97
:1018C10012080374FC2581F581021BED90092BE0C0
:0618D100B40701D3400C36
:1018D7007B057A15792C1208037FFF2290092BE0EC
:1018E7002400F582E43451F583E0FDE4C0E0C0054F
:1018F70090092BE0FDE4C0E0C0057B057A15796A05
:1019070012080374FC2581F581021BEDE490092C74
:10191700F090092CE0FD3395E0FCED24EAF582EC2C
:101927003408F583E0FD3395E0C0E0C0057B057A18
:101937001579791208031581158190092CE004F0B7
:10194700B418CEE4F090092CE0FD3395E0FCED24CB
:1019570002F582EC3409F583E0FD3395E0C0E0C081
:10196700057B057A15797912080315811581900988
:101977002CE004F0B418CEE4F090092CE0FD339588
:10198700E0FCED24C0F582EC3405F583E0FDE4C00E
:10199700E0C0057B057A15797C120803158115814E
:1019A70090092CE004F0B410D0905103E0FDE4C09E
:1019B700E0C005905102E0FDE4C0E0C00590510190
:1019C700E0FDE4C0E0C005905100E0FDE4C0E0C0E8
:1019D700057B057A15797F12080374F82581F5814F
:1019E700905107E0FDE4C0E0C005905106E0FDE43A
:1019F700C0E0C005905105E0FDE4C0E0C00590518E
:101A070004E0FDE4C0E0C0057B057A15797F120884
:101A17000374F82581F5819005E9E0FDE4C0E0C095
:101A2700059005E8E0FDE4C0E0C0059005E4E0FDB1
:101A3700E4C0E0C005A3E0FDE4C0E0C005A3E0FD0D
:101A4700E4C0E0C0057B057A15798812080374F6AF
:101A57002581F5819005F1E0FDE4C0E0C005900522
:101A6700F0E0FDE4C0E0C0059005ECE0FDE4C0E077
:101A7700C005A3E0FDE4C0E0C005A3E0FDE4C0E0CD
:101A8700C0057B057A1579A812080374F62581F538
:101A9700819005FEE0C0E0A3E0C0E07B057A157900
:101AA700CC120803158115817B057A1579DF120899
:101AB70003021BED9005E2E0FDE4C0E0C0059005E0
:101AC700E1E0FDE4C0E0C0059005E0E0FDE4C0E032
:101AD700C0059005DCE0FDE4C0E0C005A3E0FDE43F
:101AE700C0E0C005A3E0FDE4C0E0C0057B057A15B2
:101AF70079E112080374F42581F581021BED900941
:081B07002BE0B41701D34023C9
:101B0F0090092AE0FDE4C0E0C005E0FDE4C0E0C0BC
:101B1F00057B057A16790812080374FC2581F58177
:101B2F007FFF2290092AE0FCA3E02402F582E4342F
:101B3F0009F583ECF090092BE0FDE4C0E0C005E06F
:101B4F00FDE4C0E0C005E02402F582E43409F5832A
:101B5F00E0FD3395E0C0E0C0057B057A16794D12A4
:101B6F00080374FA2581F581807490092BE0B4176E
:041B7F0001D340232B
:101B830090092AE0FDE4C0E0C005E0FDE4C0E0C048
:101B9300057B057A16790812080374FC2581F58103
:101BA3007FFF2290092AE024E0FCA3E024EAF582E7
:101BB300E43408F583ECF090092BE0FDE4C0E0C0C9
:101BC30005E0FDE4C0E0C005E024EAF582E4340862
:101BD300F583E0FD3395E0C0E0C0057B057A167917
:0D1BE3007D12080374FA2581F581E4FF22CC
:101BF0007E057FDC120498E49005D6F09005D5F0C0
:101C00009005D4F09005D7F09005DAF0A3F0900598
:041C1000C0E060428E
:101C14009005E0E0FB7A002402F8F582E43409F54B
:101C240083E024BF601114600E24FB600A24F96071
:071C34000624F6601880167B
:101C3B0074019005D6F09005DBE004F09005DA70A6
:101C4B000AE004F08005E49005D6F09005C2E06050
:011C5B004246
:101C5C009005E0E0FB7A002402F8F582E43409F503
:101C6C0083E024BF601114602424FB602024F960FD
:071C7C000624F66018801633
:101C830074019005D4F09005DBE004F09005DA7060
:101C93000AE004F08005E49005D4F09005C3E06009
:011CA30042FE
:101CA4009005E0E0FB7A002402F8F582E43409F5BB
:101CB40083E024BF601114602424FB600A24F960CB
:071CC4001C24F660188016D5
:101CCB0074019005D5F09005DBE004F09005DA7017
:101CDB000AE004F08005E49005D5F09005C1E060C2
:011CEB003EBA
:101CEC009005E0E0FB7A0024EAF8F582E43408F58C
:101CFC0083E024BF600D14600A24FB600624F960A5
:031D0C000280163C
:101D0F0074019005D7F09005DBE004F09005DA70D0
:101D1F000AE004F08005E49005D7F09005D6E09036
:101D2F005106F09005D5E0905105F09005D4E09064
:101D3F005104F09005D7E0905107F09005C1E07085
:101D4F00109005C0E0700A9005C2E07004A3E06037
:101D5F00129005DAE07004A3E0600874019051005E
:101D6F00F08005E4905100F09005DAE07041A3E0B7
:021D7F00703DB5
:101D81009005E0E0FF7E00E4FC7D03120BB1BC0096
:0F1D91002CED600B14601014601514601A801E86
:101DA0007401905106F080167401905107F0800E76
:101DB0007401905105F080067401905104F0900573
:0E1DC000EEE0F5F09005DEE0B5F001D3406FE7
:101DCE009005FEE0C0E0A3E0C0E09005F0E0FF7EED
:101DDE0000E4FC7D3C120B9DA3E0FBEF2BFBE43EED
:101DEE00FA74DCC39BFB74059AFAD0E02BFBD0E0AF
:101DFE003AFA9005FEF0A3EBF09005EEE025E0FD3B
:101E0E009005EDE075F03EA424C2F582E5F03405B0
:101E1E00F583ED2582F582E43583F583EAF0A3EBB5
:101E2E00F09005FEE4F0A3F07FEC7E05120498908E
:101E3E0005DAE07004A3E0601A9005FCE07014A3CC
:031E4E00E0701031
:101E51007E057FEC1204989005FCE4F0A304F022C7
:101E61009005DAE07062A3E0705E9005FCE070041A
:041E7100A3E0605436
:101E75009005FEE0C0E0A3E0C0E09005E0E0FF7E55
:101E850000E4FC7D3C120B9DA3E0FBEF2BFBE43E45
:101E9500FA9005F0E0FF7E00E4FC7D3C120B9DA36B
:101EA500E0FDEF2DFDE43EFCEBC39DFDEA9CFCD07F
:101EB500E02DFDD0E03C9005FEF0A3EDF09005FC93
:051EC500E4F0A3F0228F
:101ECA0043C00523D0050BD8050BDA0523DC05230F
:101EDA00E40523EC0523F4050BFC050BFE050B00BA
:101EEA0006F70206F73F06F77C06F7B906F7F60685
:101EFA00F73307F77007F7AD07F7EA07F72708F789
:101F0A006408F7A10833DE0861EA0841414141410A
:101F1A0041414141414141414141414141414141A7
:101F2A004141416102095858585858584241474757
:101F3A00474747414147474747474141414E071AAB
:0A1F4A0009071B09071C09071D0900
:101F5400F70050F73D50F77A50F7B75033F450F785
:101F64000051F73D51F77A51F7B75133F451F70067
:101F740000F73D00F77A00F7B700F7F400F73101F6
:101F8400F76E01F7AB01F7E801F72502F76202F7F4
:101F94009F02F7DC02F71903F75603F79303F7D010
:101FA40003F70D04F74A04F78704F7C404F701059F
:101FB400F73E05F77B0523B805232D096135090A8A
:101FC4000A0A0A0A0A0A0A0A0A0A0A0A0A0A0A0A6D
:0A1FD4000A0A0A0A0A0A0A634D0904
:0C1FDE002565090580001000000052007D
:101FEA00076E09076F090770090B71090B73090B53
:0E1FFA0075090B77090B7909137B09337F09F1
:10200800079A09079B09079C09079D09079E090765
:102018009F0907A00907A10907A20907A30907A49F
:102028000907A50907A60907A70907A80907A9090C
:1020380007AA0907AB0907AC0907AD0907AE0907E5
:10204800AF0907B00907B10907B20907B30907B40F
:102058000907B50907B60907B70907B8090BB90988
:102068000BBB090BBD090BBF0913C1090BC5090B34
:0B207800C7090BC90907CB090BCC09F5
:092083000BCF0907D10923D20992
:0C208C00117C0A00002EAF09800A0A7CBB
:0F20980011840A0000302D09880A0A840B8A0A75
:0120A7000038
:1020A8001A020B0F2128001D080202484F504C410C
:1020B8000000000000000000000000000000000018
:0D20C800005000010051000100000005C0A3
:0720D5009009FDE020E11776
:1020DC0075E0A89009CF7409F0A3742DF0122A7A38
:0720EC007F657E0912245EEE
:1020F3007F657E09122131122A92E4FBFFFD122C27
:1021030083E4FF7D017B08122C83E4FF7D027B10B7
:10211300122C83122D9D121103121104E4FBFFFDF7
:0E212300122D7E122C7D9009FDE030E0C322CB
:1021310090098BEEF0A3EFF08E838F82A3A3E07062
:1021410004A3E060069009A1E0600122E49009B7D0
:0D215100F09009B5E0601290096EE0700C8E
:10215E009009B6E0700122E49009B6F0900970E0A3
:0A216E007008E490096FF0022244AB
:0C21780090096FE0600614601402223B26
:102184001203FCEE900975F0A3EFF090096FE004E0
:10219400F09009FCE054FEF0900979E0FEA3E0FF22
:1021A400E4C0E0C0E0C006C00790098B120B64A332
:1021B400A3A3A3A3120A84120B88900A44120A90C0
:1021C400900A48E4F0A304F0900970E0FB7404C39F
:1021D4009BFBE49400FAEB247BFBEA3409900A4A63
:1021E400F0A3EBF090098B120B64A3A3A3A3E0FF6D
:1021F4001203C9EF90098DF0EF6403700F7F757EB1
:10220400097C017DF4120408EF70012290098DE02D
:1022140060079009C3E04408F090097AE004F09064
:1022240009797003E004F0900970E014F060012271
:10223400E490096FF08009E4900970F090096FF060
:1022440090096EE0B41100503AFA232A9022547394
:102254000222880222D90223550223920223CA02AF
:10226400240B0224450222870222870222870222AB
:10227400880222D90223550223920223CA02240B84
:0422840002245222BC
:1022880090096EE0640A700B900977E4F0A3740C6F
:10229800F0802890098B120B64A3A3A3E0FB120B18
:1022A80054E0FA75F002EBC333CA33CAD5F0F82408
:1022B8000CFBE43A900977F0A3EBF090097374FFF4
:1022C800F0A3F0900971E4F0A3F090096EE004F037
:1022D80022900977E0FAA3E0FBA3EAF0A3EBF090E1
:1022E8000971E0FAA3E0FB90098B120B64A3E02BC1
:1022F800F8120B54E03AF5838882120A8490097B1D
:10230800120A907F7B7E09E4FC7D04900973E0FA51
:10231800A3E0FB120588EE900973F0A3EFF07404B4
:10232800900970F0900978E02404FB900977E03474
:1023380000F0A3EBF0900972E02404FB900971E02F
:102348003400F0A3EBF090096EE004F022900971DC
:10235800E0FCA3E0FD90098B120B64A3A3A3E0FBB0
:10236800120B54E0FA75F002EBC333CA33CAD5F046
:10237800F8FBECB50204EDB50300500790096EE0D8
:1023880014F02290096EE004F02290096EE0640DCA
:102398007009900979E4F0A3F08009900979E4F0D4
:1023A800A37404F0E4FCFD900971E0FEA3E0FF9043
:1023B800097B120A907402900970F090096EE0048B
:1023C800F02290096EE0640E700B900979E4F0A396
:1023D8007402F08009900979E4F0A37406F07E098C
:1023E8007F71E4FC7D0274FFFAFB120588E4FCFDB2
:1023F80090097B120A907402900970F090096EE0BF
:1024080004F02290096EE0640F700B900979E4F0F3
:10241800A37408F08009900979E4F0A3740AF0E441
:10242800FCFD900973E0FEA3E0FF90097B120A907F
:102438007402900970F090096EE004F02274019023
:1024480009B7F0740A90096EF02274019009B7F088
:06245800E490096EF02281
:10245E0090098EEEF0A3EFF08E838F82A3A3E0702F
:10246E0005A3E07001229009FCE04401F012044142
:10247E0090098E120B64A3A3A3A3A37A0A7B3C122A
:10248E000A9C900A40E4F0A3740CF07409A3F0A324
:10249E00747FF090098E120B64A3A3A3A3E0FF1226
:1024AE0003C6EF6003022A06900981E0C0E0A3E0B4
:1024BE00C0E07E097F7FE4FC7D0274FFFAFB12050B
:1024CE0088D005D0F0EEB5F017EFB5051390097F63
:1024DE00E0FAA3E0FB900990EAF0A3EBF00225A846
:1024EE00900985E0C0E0A3E0C0E07E097F83E4FCB4
:1024FE007D0274FFFAFB120588D005D0F0EEB5F020
:0F250E00028003022A06EFB505028003022A06A7
:10251D00900983E0FAA3E0FB900990EAF0A3EBF0B9
:10252D0090098E120B64A3A3A3A3A3120B32E4FE96
:10253D00FCFD7F04120B88900A3C120A90900A4011
:10254D00E4F0A37404F07409A3F0A37492F090095D
:10255D008E120B64A3A3A3A3E0FF1203C6EF6003C7
:10256D00022A0690098E120B64A3A3A3A3A37A0AD1
:10257D007B44120A9C900A48E4F0A37404F0740999
:10258D00A3F0A37492F090098E120B64A3A3A3A3DE
:10259D00E0FF1203C9EF6003022A06900990E0FCE8
:1025AD00A3E0FD90098E120B64A3A3A3E0FB120B15
:1025BD0054E0FA75F002EBC333CA33CAD5F0F8FB19
:1025CD00EAB50404EBB505005003022A06900996FE
:1025DD0074FFF0A3F0A3E4F0A3F0900990E0FAA348
:1025ED00E0FB900998E0B50205A3E0B503004003B8
:0325FD0002268A29
:10260000E4FCFD900998E0FEA3E0FFE4C0E0C0E038
:10261000C006C00790098E120B64A3A3A3A3A31244
:102620000B32E4FE7F0C120B88120B88900A3C12CE
:102630000A90900A40E4F0A37404F07409A3F0A394
:102640007492F090098E120B64A3A3A3A3E0FF126F
:1026500003C6EF6003022A067E097F92E4FC7D0434
:10266000900996E0FAA3E0FB120588EE900996F037
:10267000A3EFF0120441900999E02404FB9009981B
:10268000E03400F0A3EBF00225E7900996E0FAA30E
:10269000E0FB900987E0B5020AA3E08BF06B7003C2
:0326A0000228F419
:1026A30090099674FFF0A3F0A3E4F0A3F0900990CF
:1026B300E0FAA3E0FB900998E0B50205A3E0B503B7
:0626C30000400302275E47
:1026C900E4FCFD900998E0FEA3E0FFE4C0E0C0E06F
:1026D900C006C007C0E0C0E0C002C00390098E1266
:1026E9000B64A3A3A3A3A3120B32E4FE7F0C120B6A
:1026F90088120B88120B88900A3C120A90900A40A3
:10270900E4F0A37404F07409A3F0A37492F090099F
:102719008E120B64A3A3A3A3E0FF1203C6EF600309
:10272900022A067E097F92E4FC7D04900996E0FA6C
:10273900A3E0FB120588EE900996F0A3EFF01204CE
:1027490041900999E02404FB900998E03400F0A332
:10275900EBF00226B0900996E0FAA3E0FB90098914
:10276900E0B502028003022A06A3E08BF06B600346
:03277900022A062B
:10277C00900998E4F0A3F0900990E0FAA3E0FB90A4
:10278C000998E0B50205A3E0B50300400302286EEA
:10279C00E4FCFD900998E0FEA3E0FFE4C0E0C0E09B
:1027AC00C006C007C0E0C0E0C002C00390098E1292
:1027BC000B64A3A3A3A3A3120B32E4FE7F0C120B96
:1027CC0088120B88120B88900A3C120A90900A40CF
:1027DC00E4F0A37404F07409A3F0A37492F09009CC
:1027EC008E120B64A3A3A3A3E0FF1203C6EF600336
:1027FC00022A06E4FCFD900998E0FEA3E0FFE4C089
:10280C00E0C0E0C006C00790098E120B64A3A3A31E
:10281C00A3A3120B32E4FE7F0C120B88120B8890D0
:10282C000A44120A90900A48E4F0A37404F0740964
:10283C00A3F0A37492F090098E120B64A3A3A3A32C
:10284C00E0FF1203C9EF6003022A0612044190094B
:10285C0099E02404FB900998E03400F0A3EBF0021B
:10286C00278390098E120B64A3A3A3A3A3120B328C
:10287C00E4FCFDFE7F0A120B88900A3C120A909031
:10288C000A40E4F0A37402F07409A3F0A37492F06C
:10289C0090098E120B64A3A3A3A3E0FF1203C6EF4F
:1028AC006003022A0690098E120B64A3A3A3A3A3B0
:1028BC00120B32E4FCFDFE7F08120B88900A4412C6
:1028CC000A90900A48E4F0A37402F07409A3F0A3F0
:1028DC007492F090098E120B64A3A3A3A3E0FF12D1
:0828EC0003C9EF6003022A0694
:1028F400900998E4F0A3F0900990E0FAA3E0FB902B
:102904000998E0B50205A3E0B50300400302299944
:10291400E4FCFD900998E0FEA3E0FFE4C0E0C0E021
:10292400C006C00790098E120B64A3A3A3A3A3122D
:102934000B32E4FE7F0C120B88120B88900A3C12B7
:102944000A90900A40E4F0A37404F0900998E0FA25
:10295400A3E0FB90098E120B64A3E02BFB120B5433
:10296400E03A900A42F0A3EBF090098E120B64A3B4
:0E297400A3A3A3E0FF1203C6EF6003022A062E
:10298200120441900999E02404FB900998E0340074
:10299200F0A3EBF00228FB900990E0FAA3E0FB9091
:1029A2000998EAF0A3EBF090098E120B64A3A3A39B
:1029B200E0FB120B54E0FA75F002EBC333CA33CAE0
:1029C200D5F0F8FB900998E0B50205A3E0B5030045
:0229D200503182
:0329D400120441A9
:1029D700900998E0FAA3E0FB90098E120B64A3E03C
:1029E7002BF8120B54E03AF5838882E4F0900998AB
:0F29F700A3E004F090099870A9E004F080A422F6
:102A0600900998E4F0A3F090098E120B64A3A3A397
:102A1600E0FB120B54E0FA75F002EBC333CA33CA7B
:102A2600D5F0F8FB900998E0B50205A3E0B50300E0
:052A36005031120441C3
:102A3B00900998E0FAA3E0FB90098E120B64A3E0D7
:102A4B002BF8120B54E03AF5838882E4F090099846
:102A5B00A3E004F090099870A9E004F080A4900919
:0C2A6B00C3E04404F074019009B4F022B0
:032A77000101005A
:102A7A0012034B9009C5E4F0A3F0A3F0A3F0A3F06E
:082A8A00A3F0049009A1F02261
:102A92001204419009C175F0038001A3E07007D5CB
:102AA200F0F9A3E060087F01E4FCFD12034E12037B
:102AB200FCEE9009B9F0A3EFF09009A1E0600302E7
:022AC2002B4F98
:102AC4009009B9E0FAA3E0FB9009CDE0F8EBC398D4
:102AD400FB9009CCE0F8EA989009BBF0A3EBF090E6
:052AE40009CBE07019B0
:102AE9007401F09009BBE0FAA3E0FBA3EAF0A3EBC1
:092AF900F0A3EAF0A3EBF0804D1C
:102B02009009BDE0FAA3E0FB9009BBE0B50205A382
:102B1200E0B5030050109009BBE0FAA3E0FBA3EA82
:102B2200F0A3EBF080279009BFE0FAA3E0FB900945
:102B3200BBE0B50206A3E0B50301D340109009BB88
:102B4200E0FAA3E0FB9009BFEAF0A3EBF09009B929
:102B5200E0FAA3E0FB9009CCEAF0A3EBF09009A223
:102B6200E06401F012058EEF9009B8F0E49009AB31
:102B7200F09009C5E0FAA3E0FB9009BCE02BFB90C2
:102B820009BBE03AFA9009C5F0A3EBF0BA0004BB26
:052B92006401D3404F77
:102B97009009C6E0249CFB9009C5E034FFF0A3EB45
:102BA700F074019009ABF09009A3E06401F0602F85
:102BB700A3E06401F06028A3E06401F06021A3E0D2
:102BC7006401F0601AA3E06401F06013A3E06401FC
:102BD700F0600CA3E06401F06005A3E06401F090ED
:102BE70009C7E0FAA3E0FB9009BCE02BFB9009BB07
:102BF700E03AFA9009C7F0A3EBF0BA0004BB320140
:032C0700D340189F
:102C0A009009C8E024CEFB9009C7E034FFF0A3EB9B
:102C1A00F090099EE06401F0E49009ACF0A3F09012
:102C2A0009C9E0FAA3E0FB9009BCE02BFB9009BBC1
:102C3A00E03AFA9009C9F0A3EBF0BA0004BBFA0132
:032C4A00D3402F45
:102C4D009009CAE02406FB9009C9E034FFF0A3EB1C
:0A2C5D00F090099FE06401F060159B
:102C670074019009ACF09009A0E06401F06006746B
:062C7700019009ADF022FE
:062C7D00E49009A1F02221
:102C8300C0037A097BCE120381D0039009CEE0FF03
:102C930075F0089009BBE060047CFF8003A3E0FCAF
:102CA3009009A1E0605674352BF5827583095002B3
:102CB3000583E0FDEF5401701E74002BF5827583CC
:102CC3005050020583E4F0744D2BF582758309504F
:102CD300020583E4F0801D74002BF5827583505048
:102CE3000205837401F0744D2BF58275830950023C
:102CF3000583EDF0EF03FF0BD5F0AB2274352BF515
:102D03008275830950020583E0FD701274002BF570
:102D13008275835050020583EF5401F08055EF54C0
:102D2300017027744D2BF58275830950020583E0EA
:102D33006007C39CF0503CE4F074002BF58275836C
:102D430050500205837400F08029744D2BF5827571
:102D5300830950020583E06D600AE02CF040039D77
:102D63004011EDF074002BF58275835050020583FA
:0B2D73007401F0EF03FF0BD5F082228B
:102D7E0074002BF582758351500205837B0075F02C
:0F2D8E0008E024FFEB13FBA3D5F0F61203842219
:0C2D9D009009ACE0FA9009A1E04A607CCB
:062DA9009009D1E0604832
:102DAF00E4C0E07408C0E07A097B0279D27D02901A
:102DBF0009CFE0FCA3E0F8120E08EE158115814F44
:022DCF0060267C
:102DD100E4C0E07408C0E079D27A097B027D0290F8
:102DE10009CFE0FCA3E0F8120DE8158115817FD22F
:102DF1007E0912049B227FD27E09120498EF70246F
:102E010074019009D1F0E4C0E07408C0E07B029045
:102E110009CFE0FAA3E0F97D027C0978D2120DE82E
:052E210015811581225E
:0A2E2600856A83856B82120B8322FC
:102E3000E5692416F582E43568F583E493FA7401B4
:092E400093F5828A83120B8322B0
:102E49009009DAEEF0A3EFF0856883856982E4934F
:102E59007A00640170289009DAE0FEA3E0FF856832
:102E690083856982A3A3E493FA740193F5828A8323
:102E7900E493FA740193F5828A83120B8322900AF0
:062E890006E04440F022C7
:102E8F0005040507050A3069306930693069306912
:102E9F00306930693069306930693069306930695B
:102EAF0001FE2E8F2EDF04B904BC04BF04C204C57B
:102EBF0004C804CB04CE04D104D404D704DA306898
:102ECF00306804E304E6306930693069306930698D
:062EDF007F011204AA228B
:102EE500900A82EEF0A3EFF0856883856982E4930A
:102EF5007A006401702A900A82E0FEA3E0FF8568EB
:102F050083856982A3A3E493FA740193F5828A8386
:102F1500A3A3E493FA740193F5828A83120B8322A7
:082F2500900A06E04440F0228E
:102F2D008E838F82A3A3120B64A3E493FB8E838FF6
:102F3D0082A3A3120B64E493FDEB6DF4700A900A67
:102F4D008AEEF0A3EFF08010900A88E0FAA3E0FB80
:102F5D00900A8AEAF0A3EBF0900A8A120B64A3A3FD
:102F6D00E0F568A3E0F5698E838F82A3A3120B644D
:102F7D00E5822410F582E43583F583E493F56A74D4
:102F8D000193F56B8E838F82A3A3120B64E58224CC
:102F9D0012F582E43583F583E493F56C740193F5B2
:102FAD006D856883856982A3A3A3A3E493FA740155
:092FBD0093F5828A83120B832232
:102FC600BF00061220D502033F75816F7F001203F2
:102FD600781230FD122FEED2AF1220D502033F0237
:082FE60030BA02316602309599
:102FEE009009DC7441F0A3F07B027A0979E07D054B
:0F2FFE007C30788A120C837FDC7E091203482214
:10300D00305D305D305D305D305D305D305D305D4B
:10301D00305D305D305D305D305D305D305D305D3B
:10302D0000FF300D305D305D305D305D305D306501
:10303D00305D305D305D305D305D305D305D305D1B
:10304D00305D305D305D305D305D305D305D305D0B
:08305D00900A06E04420F02275
:03306500E4FF2263
:013068002245
:08306900900A06E04410F02279
:10307100E5692414F582E43568F583E493FA740173
:0930810093F5828A83120B83226D
:0B308A005346523034334233303000E4
:10309500C2AFC06EC5F0F56E74B3C0E07430C0E069
:1030A500C082C083E56E12033CE5F0D2AF22C2AF09
:0530B500D06ED2AF2235
:1030BA00C0F0C083C082C0D0C000C001C002C0033B
:1030CA00C004C0051230F3304007C0071230F8D0F0
:1030DA00077E00D005D004D003D002D001D000D0A2
:1030EA00D0D082D083D0F0EF22C06BC06A22C06DEC
:0330FA00C06C2285
:1030FD00901ECAE4937002805FC31392D5C31392DE
:10310D00D1FFA3E493F8B0D5403230D505E4A393B5
:10311D00F5F0E420D102A39320D507F608DFF3A341
:10312D0080D1C583C5F0C583C582C8C582F0A3C54E
:10313D0083C5F0C583C582C8C58280E1E80303035A
:10314D00541F2420F9E85407F8E4D333B800028063
:09315D000333D8FD47F780C722B7
:10316600C0F0C083C082C0D0C000C001C002C0038E
:10317600C004C005C006C00712319AD007D006D0D9
:1031860005D004D003D002D001D000D0D0D082D058
:0931960083D0F022C06DC06C2250
:00000001FF
